{
  "_format": "hh-sol-artifact-1",
  "contractName": "PriceTracker",
  "sourceName": "contracts/PriceTracker.sol",
  "abi": [
    {
      "inputs": [
        {
          "internalType": "address",
          "name": "_priceConsumer",
          "type": "address"
        }
      ],
      "stateMutability": "nonpayable",
      "type": "constructor"
    },
    {
      "inputs": [],
      "name": "getLatestDaiPrice",
      "outputs": [
        {
          "internalType": "int256",
          "name": "",
          "type": "int256"
        }
      ],
      "stateMutability": "view",
      "type": "function"
    },
    {
      "inputs": [],
      "name": "getLatestUsdcPrice",
      "outputs": [
        {
          "internalType": "int256",
          "name": "",
          "type": "int256"
        }
      ],
      "stateMutability": "view",
      "type": "function"
    },
    {
      "inputs": [],
      "name": "priceConsumer",
      "outputs": [
        {
          "internalType": "contract PriceConsumerV3",
          "name": "",
          "type": "address"
        }
      ],
      "stateMutability": "view",
      "type": "function"
    }
  ],
  "bytecode": "0x608060405234801561001057600080fd5b5060405161046b38038061046b833981810160405281019061003291906100db565b806000806101000a81548173ffffffffffffffffffffffffffffffffffffffff021916908373ffffffffffffffffffffffffffffffffffffffff16021790555050610108565b600080fd5b600073ffffffffffffffffffffffffffffffffffffffff82169050919050565b60006100a88261007d565b9050919050565b6100b88161009d565b81146100c357600080fd5b50565b6000815190506100d5816100af565b92915050565b6000602082840312156100f1576100f0610078565b5b60006100ff848285016100c6565b91505092915050565b610354806101176000396000f3fe608060405234801561001057600080fd5b50600436106100415760003560e01c8063461a758c14610046578063627b01c814610064578063f551245914610082575b600080fd5b61004e6100a0565b60405161005b9190610271565b60405180910390f35b61006c6100c4565b60405161007991906102a5565b60405180910390f35b61008a61015b565b60405161009791906102a5565b60405180910390f35b60008054906101000a900473ffffffffffffffffffffffffffffffffffffffff1681565b60008060009054906101000a900473ffffffffffffffffffffffffffffffffffffffff1673ffffffffffffffffffffffffffffffffffffffff1663a85754d06040518163ffffffff1660e01b8152600401602060405180830381865afa158015610132573d6000803e3d6000fd5b505050506040513d601f19601f8201168201806040525081019061015691906102f1565b905090565b60008060009054906101000a900473ffffffffffffffffffffffffffffffffffffffff1673ffffffffffffffffffffffffffffffffffffffff16636749561e6040518163ffffffff1660e01b8152600401602060405180830381865afa1580156101c9573d6000803e3d6000fd5b505050506040513d601f19601f820116820180604052508101906101ed91906102f1565b905090565b600073ffffffffffffffffffffffffffffffffffffffff82169050919050565b6000819050919050565b600061023761023261022d846101f2565b610212565b6101f2565b9050919050565b60006102498261021c565b9050919050565b600061025b8261023e565b9050919050565b61026b81610250565b82525050565b60006020820190506102866000830184610262565b92915050565b6000819050919050565b61029f8161028c565b82525050565b60006020820190506102ba6000830184610296565b92915050565b600080fd5b6102ce8161028c565b81146102d957600080fd5b50565b6000815190506102eb816102c5565b92915050565b600060208284031215610307576103066102c0565b5b6000610315848285016102dc565b9150509291505056fea2646970667358221220411f50048d4be830c5332e23eaf5fd2203ff5b85e5425b121a71b04d4473aa1064736f6c63430008120033",
  "linkReferences": {},
  "deployedLinkReferences": {}
}